{
  "contractName": "Driver",
  "abi": [
    {
      "constant": true,
      "inputs": [
        {
          "name": "",
          "type": "address"
        }
      ],
      "name": "driversStruct",
      "outputs": [
        {
          "name": "credit",
          "type": "uint256"
        },
        {
          "name": "driverName",
          "type": "string"
        },
        {
          "name": "mobileAddress",
          "type": "address"
        }
      ],
      "payable": false,
      "stateMutability": "view",
      "type": "function"
    },
    {
      "constant": false,
      "inputs": [
        {
          "name": "_driver",
          "type": "address"
        },
        {
          "name": "_driverName",
          "type": "string"
        },
        {
          "name": "_credit",
          "type": "uint256"
        }
      ],
      "name": "setDriver",
      "outputs": [
        {
          "name": "",
          "type": "bool"
        }
      ],
      "payable": false,
      "stateMutability": "nonpayable",
      "type": "function"
    },
    {
      "constant": true,
      "inputs": [
        {
          "name": "_driver",
          "type": "address"
        }
      ],
      "name": "getDriver",
      "outputs": [
        {
          "name": "",
          "type": "uint256"
        }
      ],
      "payable": false,
      "stateMutability": "view",
      "type": "function"
    },
    {
      "constant": true,
      "inputs": [
        {
          "name": "_driver",
          "type": "address"
        },
        {
          "name": "_credit",
          "type": "uint256"
        }
      ],
      "name": "giveDriverAsset",
      "outputs": [
        {
          "name": "",
          "type": "bool"
        }
      ],
      "payable": false,
      "stateMutability": "view",
      "type": "function"
    },
    {
      "constant": false,
      "inputs": [
        {
          "name": "_emobile",
          "type": "address"
        },
        {
          "name": "_driver",
          "type": "address"
        }
      ],
      "name": "setMobileAddressForDriver",
      "outputs": [
        {
          "name": "",
          "type": "bool"
        }
      ],
      "payable": false,
      "stateMutability": "nonpayable",
      "type": "function"
    }
  ],
  "bytecode": "0x608060405234801561001057600080fd5b50610828806100206000396000f30060806040526004361061006c576000357c0100000000000000000000000000000000000000000000000000000000900463ffffffff1680628e29aa14610071578063012ad3111461011c5780632f3ffeb51461021257806365c301ab1461028d5780639932aa75146102e4575b600080fd5b34801561007d57600080fd5b50610102600480360381019080803573ffffffffffffffffffffffffffffffffffffffff169060200190929190803590602001908201803590602001908080601f016020809104026020016040519081016040528093929190818152602001838380828437820191505050505050919291929080359060200190929190505050610349565b604051808215151515815260200191505060405180910390f35b34801561012857600080fd5b5061015d600480360381019080803573ffffffffffffffffffffffffffffffffffffffff169060200190929190505050610458565b60405180848152602001806020018373ffffffffffffffffffffffffffffffffffffffff1673ffffffffffffffffffffffffffffffffffffffff168152602001828103825284818151815260200191508051906020019080838360005b838110156101d55780820151818401526020810190506101ba565b50505050905090810190601f1680156102025780820380516001836020036101000a031916815260200191505b5094505050505060405180910390f35b34801561021e57600080fd5b50610273600480360381019080803573ffffffffffffffffffffffffffffffffffffffff169060200190929190803573ffffffffffffffffffffffffffffffffffffffff16906020019092919050505061053a565b604051808215151515815260200191505060405180910390f35b34801561029957600080fd5b506102ce600480360381019080803573ffffffffffffffffffffffffffffffffffffffff16906020019092919050505061064b565b6040518082815260200191505060405180910390f35b3480156102f057600080fd5b5061032f600480360381019080803573ffffffffffffffffffffffffffffffffffffffff169060200190929190803590602001909291905050506106fc565b604051808215151515815260200191505060405180910390f35b600060018490806001815401808255809150509060018203906000526020600020016000909192909190916101000a81548173ffffffffffffffffffffffffffffffffffffffff021916908373ffffffffffffffffffffffffffffffffffffffff16021790555050816000808673ffffffffffffffffffffffffffffffffffffffff1673ffffffffffffffffffffffffffffffffffffffff16815260200190815260200160002060000181905550826000808673ffffffffffffffffffffffffffffffffffffffff1673ffffffffffffffffffffffffffffffffffffffff168152602001908152602001600020600101908051906020019061044c929190610757565b50600190509392505050565b6000602052806000526040600020600091509050806000015490806001018054600181600116156101000203166002900480601f01602080910402602001604051908101604052809291908181526020018280546001816001161561010002031660029004801561050a5780601f106104df5761010080835404028352916020019161050a565b820191906000526020600020905b8154815290600101906020018083116104ed57829003601f168201915b5050505050908060020160009054906101000a900473ffffffffffffffffffffffffffffffffffffffff16905083565b6000806000808473ffffffffffffffffffffffffffffffffffffffff1673ffffffffffffffffffffffffffffffffffffffff16815260200190815260200160002060020160009054906101000a900473ffffffffffffffffffffffffffffffffffffffff1673ffffffffffffffffffffffffffffffffffffffff1614156105c45760009050610645565b826000808473ffffffffffffffffffffffffffffffffffffffff1673ffffffffffffffffffffffffffffffffffffffff16815260200190815260200160002060020160006101000a81548173ffffffffffffffffffffffffffffffffffffffff021916908373ffffffffffffffffffffffffffffffffffffffff1602179055505b92915050565b600060018290806001815401808255809150509060018203906000526020600020016000909192909190916101000a81548173ffffffffffffffffffffffffffffffffffffffff021916908373ffffffffffffffffffffffffffffffffffffffff160217905550506000808373ffffffffffffffffffffffffffffffffffffffff1673ffffffffffffffffffffffffffffffffffffffff168152602001908152602001600020600001549050919050565b6000816000808573ffffffffffffffffffffffffffffffffffffffff1673ffffffffffffffffffffffffffffffffffffffff168152602001908152602001600020600001600082825401925050819055506001905092915050565b828054600181600116156101000203166002900490600052602060002090601f016020900481019282601f1061079857805160ff19168380011785556107c6565b828001600101855582156107c6579182015b828111156107c55782518255916020019190600101906107aa565b5b5090506107d391906107d7565b5090565b6107f991905b808211156107f55760008160009055506001016107dd565b5090565b905600a165627a7a72305820b1cf9393af7d54d6bb5914486d97d49a5be7803c048e1c88a0e8f618ad8ca3ac0029",
  "source": "pragma solidity ^0.4.16;\n\n// Every mobile has their own contract name !\ncontract Driver {  \n    struct Drivers{\n        uint256 credit ;      // -5~5\n        string driverName;    //司機名稱\n        address mobileAddress;\n    }\n    \n    mapping(address => Drivers) public driversStruct;\n    address[] driverList;\n    \n    function setDriver(address _driver,string _driverName , uint256 _credit) public returns(bool){\n        driverList.push(_driver);\n        driversStruct[_driver].credit = _credit;\n        driversStruct[_driver].driverName = _driverName;\n        return true;\n    }\n    \n    function getDriver(address _driver) public  constant returns (uint256){\n        driverList.push(_driver);\n        return driversStruct[_driver].credit;\n    }\n\n    function giveDriverAsset(address _driver, uint256 _credit) public constant returns (bool) {\n        driversStruct[_driver].credit += _credit;\n        return true;\n    }\n\n    function setMobileAddressForDriver(address _emobile, address _driver) public returns(bool) {\n        if(driversStruct[_driver].mobileAddress == 0x0) {\n            return false;\n        }\n        driversStruct[_driver].mobileAddress = _emobile;\n    }\n}",
  "sourcePath": "/Users/a10000005588/EMoto/emobileContract/contracts/Driver.sol",
  "compiler": {
    "name": "solc",
    "version": "0.4.23+commit.124ca40d.Emscripten.clang"
  },
  "schemaVersion": "2.0.0",
  "updatedAt": "2018-05-09T13:58:11.120Z"
}