{
  "contractName": "Driver",
  "abi": [
    {
      "constant": true,
      "inputs": [
        {
          "name": "",
          "type": "address"
        }
      ],
      "name": "driversStruct",
      "outputs": [
        {
          "name": "credit",
          "type": "uint256"
        },
        {
          "name": "driverName",
          "type": "string"
        },
        {
          "name": "isStore",
          "type": "uint256"
        }
      ],
      "payable": false,
      "stateMutability": "view",
      "type": "function"
    },
    {
      "constant": false,
      "inputs": [
        {
          "name": "_driver",
          "type": "address"
        },
        {
          "name": "_driverName",
          "type": "string"
        },
        {
          "name": "_credit",
          "type": "uint256"
        }
      ],
      "name": "setDriverInformation",
      "outputs": [],
      "payable": false,
      "stateMutability": "nonpayable",
      "type": "function"
    },
    {
      "constant": true,
      "inputs": [
        {
          "name": "_driver",
          "type": "address"
        }
      ],
      "name": "getDriverInformation",
      "outputs": [
        {
          "name": "",
          "type": "uint256"
        },
        {
          "name": "",
          "type": "string"
        }
      ],
      "payable": false,
      "stateMutability": "view",
      "type": "function"
    },
    {
      "constant": false,
      "inputs": [
        {
          "name": "_driver",
          "type": "address"
        },
        {
          "name": "credit",
          "type": "uint256"
        }
      ],
      "name": "giveCreditForDriver",
      "outputs": [
        {
          "name": "",
          "type": "uint256"
        }
      ],
      "payable": false,
      "stateMutability": "nonpayable",
      "type": "function"
    }
  ],
  "bytecode": "0x608060405234801561001057600080fd5b506107db806100206000396000f300608060405260043610610062576000357c0100000000000000000000000000000000000000000000000000000000900463ffffffff168063012ad3111461006757806349696bfa14610131578063bce76983146101f4578063f38e6be814610287575b600080fd5b34801561007357600080fd5b506100a8600480360381019080803573ffffffffffffffffffffffffffffffffffffffff1690602001909291905050506102e8565b6040518084815260200180602001838152602001828103825284818151815260200191508051906020019080838360005b838110156100f45780820151818401526020810190506100d9565b50505050905090810190601f1680156101215780820380516001836020036101000a031916815260200191505b5094505050505060405180910390f35b34801561013d57600080fd5b50610172600480360381019080803573ffffffffffffffffffffffffffffffffffffffff1690602001909291905050506103aa565b6040518083815260200180602001828103825283818151815260200191508051906020019080838360005b838110156101b857808201518184015260208101905061019d565b50505050905090810190601f1680156101e55780820380516001836020036101000a031916815260200191505b50935050505060405180910390f35b34801561020057600080fd5b50610285600480360381019080803573ffffffffffffffffffffffffffffffffffffffff169060200190929190803590602001908201803590602001908080601f0160208091040260200160405190810160405280939291908181526020018383808284378201915050505050509192919290803590602001909291905050506104d6565b005b34801561029357600080fd5b506102d2600480360381019080803573ffffffffffffffffffffffffffffffffffffffff1690602001909291908035906020019092919050505061066f565b6040518082815260200191505060405180910390f35b6000602052806000526040600020600091509050806000015490806001018054600181600116156101000203166002900480601f01602080910402602001604051908101604052809291908181526020018280546001816001161561010002031660029004801561039a5780601f1061036f5761010080835404028352916020019161039a565b820191906000526020600020905b81548152906001019060200180831161037d57829003601f168201915b5050505050908060020154905083565b600060606000808473ffffffffffffffffffffffffffffffffffffffff1673ffffffffffffffffffffffffffffffffffffffff168152602001908152602001600020600001546000808573ffffffffffffffffffffffffffffffffffffffff1673ffffffffffffffffffffffffffffffffffffffff168152602001908152602001600020600101808054600181600116156101000203166002900480601f0160208091040260200160405190810160405280929190818152602001828054600181600116156101000203166002900480156104c65780601f1061049b576101008083540402835291602001916104c6565b820191906000526020600020905b8154815290600101906020018083116104a957829003601f168201915b5050505050905091509150915091565b60008060008573ffffffffffffffffffffffffffffffffffffffff1673ffffffffffffffffffffffffffffffffffffffff1681526020019081526020016000206002015414156105ce5760018390806001815401808255809150509060018203906000526020600020016000909192909190916101000a81548173ffffffffffffffffffffffffffffffffffffffff021916908373ffffffffffffffffffffffffffffffffffffffff1602179055505060016000808573ffffffffffffffffffffffffffffffffffffffff1673ffffffffffffffffffffffffffffffffffffffff168152602001908152602001600020600201819055505b806000808573ffffffffffffffffffffffffffffffffffffffff1673ffffffffffffffffffffffffffffffffffffffff16815260200190815260200160002060000181905550816000808573ffffffffffffffffffffffffffffffffffffffff1673ffffffffffffffffffffffffffffffffffffffff168152602001908152602001600020600101908051906020019061066992919061070a565b50505050565b6000816000808573ffffffffffffffffffffffffffffffffffffffff1673ffffffffffffffffffffffffffffffffffffffff168152602001908152602001600020600001600082825401925050819055506000808473ffffffffffffffffffffffffffffffffffffffff1673ffffffffffffffffffffffffffffffffffffffff16815260200190815260200160002060000154905092915050565b828054600181600116156101000203166002900490600052602060002090601f016020900481019282601f1061074b57805160ff1916838001178555610779565b82800160010185558215610779579182015b8281111561077857825182559160200191906001019061075d565b5b509050610786919061078a565b5090565b6107ac91905b808211156107a8576000816000905550600101610790565b5090565b905600a165627a7a7230582028765ed176220c235a97ccd96533fdcf7c3421fabebb8772bbeae3370ddd190b0029",
  "source": "pragma solidity ^0.4.16;\n\n// Every mobile has their own contract name !\ncontract Driver {  \n    struct Drivers{\n        uint credit ;     \n        string driverName;\n        uint isStore;\n        \n    }\n    \n    mapping(address => Drivers) public driversStruct;\n    address[] driverList;\n    \n    function setDriverInformation(address _driver,string _driverName, uint256 _credit) \n        public \n    {\n        if(driversStruct[_driver].isStore == 0) {\n            driverList.push(_driver);\n            driversStruct[_driver].isStore = 1;\n        }\n        \n        driversStruct[_driver].credit = _credit;\n        driversStruct[_driver].driverName = _driverName;\n    }\n    \n    function getDriverInformation(address _driver) \n        public  \n        view \n        returns (uint, string)\n    {\n        return (\n            driversStruct[_driver].credit,\n            driversStruct[_driver].driverName\n        );\n    }\n    \n    function giveCreditForDriver(address _driver, uint credit) \n        public\n        returns(uint)\n    {\n        driversStruct[_driver].credit += credit;\n        return driversStruct[_driver].credit;\n    }\n}",
  "sourcePath": "/Users/a10000005588/EMoto/emobileContract/contracts/Driver.sol",
  "compiler": {
    "name": "solc",
    "version": "0.4.23+commit.124ca40d.Emscripten.clang"
  },
  "schemaVersion": "2.0.0",
  "updatedAt": "2018-05-26T03:13:20.803Z"
}