{
  "contractName": "Emobile",
  "abi": [
    {
      "constant": true,
      "inputs": [
        {
          "name": "",
          "type": "address"
        }
      ],
      "name": "investorsStruct",
      "outputs": [
        {
          "name": "name",
          "type": "bytes32"
        },
        {
          "name": "funds",
          "type": "uint256"
        }
      ],
      "payable": false,
      "stateMutability": "view",
      "type": "function"
    },
    {
      "payable": true,
      "stateMutability": "payable",
      "type": "fallback"
    },
    {
      "constant": false,
      "inputs": [
        {
          "name": "_driverName",
          "type": "string"
        }
      ],
      "name": "setDriver",
      "outputs": [],
      "payable": false,
      "stateMutability": "nonpayable",
      "type": "function"
    },
    {
      "constant": true,
      "inputs": [],
      "name": "getInvestorCount",
      "outputs": [
        {
          "name": "",
          "type": "uint256"
        }
      ],
      "payable": false,
      "stateMutability": "view",
      "type": "function"
    },
    {
      "constant": true,
      "inputs": [
        {
          "name": "index",
          "type": "address"
        }
      ],
      "name": "getInvestors",
      "outputs": [
        {
          "name": "",
          "type": "bytes32"
        },
        {
          "name": "",
          "type": "uint256"
        }
      ],
      "payable": false,
      "stateMutability": "view",
      "type": "function"
    },
    {
      "constant": true,
      "inputs": [],
      "name": "getProfitValue",
      "outputs": [
        {
          "name": "",
          "type": "uint256"
        }
      ],
      "payable": false,
      "stateMutability": "view",
      "type": "function"
    },
    {
      "constant": true,
      "inputs": [],
      "name": "getMobileInformation",
      "outputs": [
        {
          "name": "",
          "type": "bytes"
        },
        {
          "name": "",
          "type": "uint256"
        },
        {
          "name": "",
          "type": "string"
        },
        {
          "name": "",
          "type": "bool"
        },
        {
          "name": "",
          "type": "uint256"
        }
      ],
      "payable": false,
      "stateMutability": "view",
      "type": "function"
    },
    {
      "constant": false,
      "inputs": [
        {
          "name": "_price",
          "type": "uint256"
        }
      ],
      "name": "payCoinForDriver",
      "outputs": [
        {
          "name": "",
          "type": "bool"
        }
      ],
      "payable": true,
      "stateMutability": "payable",
      "type": "function"
    },
    {
      "constant": false,
      "inputs": [
        {
          "name": "_investorName",
          "type": "bytes32"
        },
        {
          "name": "_fund",
          "type": "uint256"
        }
      ],
      "name": "investForDriver",
      "outputs": [
        {
          "name": "",
          "type": "bool"
        }
      ],
      "payable": true,
      "stateMutability": "payable",
      "type": "function"
    },
    {
      "constant": false,
      "inputs": [
        {
          "name": "precision",
          "type": "uint256"
        }
      ],
      "name": "repay",
      "outputs": [],
      "payable": false,
      "stateMutability": "nonpayable",
      "type": "function"
    }
  ],
  "bytecode": "0x6080604052674563918244f4000060015560058055602d60065534801561002557600080fd5b50610b5e806100356000396000f300608060405260043610610099576000357c0100000000000000000000000000000000000000000000000000000000900463ffffffff168063048a82921461009b57806307c3aea814610104578063371fd8e61461013c57806365b65b251461016957806370768ca3146101cf578063960524e3146101fa578063a210b83414610225578063dcd442b91461033a578063ec259c8914610380575b005b3480156100a757600080fd5b50610102600480360381019080803590602001908201803590602001908080601f01602080910402602001604051908101604052809392919081815260200183838082843782019150505050505091929192905050506103e6565b005b61012260048036038101908080359060200190929190505050610400565b604051808215151515815260200191505060405180910390f35b34801561014857600080fd5b50610167600480360381019080803590602001909291905050506104d1565b005b34801561017557600080fd5b506101aa600480360381019080803573ffffffffffffffffffffffffffffffffffffffff16906020019092919050505061063a565b6040518083600019166000191681526020018281526020019250505060405180910390f35b3480156101db57600080fd5b506101e461065e565b6040518082815260200191505060405180910390f35b34801561020657600080fd5b5061020f61067d565b6040518082815260200191505060405180910390f35b34801561023157600080fd5b5061023a61068a565b60405180806020018681526020018060200185151515158152602001848152602001838103835288818151815260200191508051906020019080838360005b83811015610294578082015181840152602081019050610279565b50505050905090810190601f1680156102c15780820380516001836020036101000a031916815260200191505b50838103825286818151815260200191508051906020019080838360005b838110156102fa5780820151818401526020810190506102df565b50505050905090810190601f1680156103275780820380516001836020036101000a031916815260200191505b5097505050505050505060405180910390f35b6103666004803603810190808035600019169060200190929190803590602001909291905050506107f6565b604051808215151515815260200191505060405180910390f35b34801561038c57600080fd5b506103c1600480360381019080803573ffffffffffffffffffffffffffffffffffffffff169060200190929190505050610846565b6040518083600019166000191681526020018281526020019250505060405180910390f35b80600390805190602001906103fc929190610a8d565b5050565b60008060003373ffffffffffffffffffffffffffffffffffffffff16111515610491576040517f08c379a00000000000000000000000000000000000000000000000000000000081526004018080602001828103825260088152602001807f4e6f206d6f6e657900000000000000000000000000000000000000000000000081525060200191505060405180910390fd5b3073ffffffffffffffffffffffffffffffffffffffff166108fc849081150290604051600060405180830381858888f19350505050905080915050919050565b60008060008060006104e161065e565b9450600154851115156104f357600080fd5b600154850393506105078487600a0a6108d8565b9250600091505b600880549050821015610632576105a16007600060088581548110151561053157fe5b9060005260206000200160009054906101000a900473ffffffffffffffffffffffffffffffffffffffff1673ffffffffffffffffffffffffffffffffffffffff1673ffffffffffffffffffffffffffffffffffffffff1681526020019081526020016000206001015486886108ee565b90506008828154811015156105b257fe5b9060005260206000200160009054906101000a900473ffffffffffffffffffffffffffffffffffffffff1673ffffffffffffffffffffffffffffffffffffffff166108fc8285029081150290604051600060405180830381858888f19350505050158015610624573d6000803e3d6000fd5b50818060010192505061050e565b505050505050565b60076020528060005260406000206000915090508060000154908060010154905082565b60003073ffffffffffffffffffffffffffffffffffffffff1631905090565b6000600880549050905090565b60606000606060008060006001546003600460149054906101000a900460ff16600254848054600181600116156101000203166002900480601f0160208091040260200160405190810160405280929190818152602001828054600181600116156101000203166002900480156107425780601f1061071757610100808354040283529160200191610742565b820191906000526020600020905b81548152906001019060200180831161072557829003601f168201915b50505050509450828054600181600116156101000203166002900480601f0160208091040260200160405190810160405280929190818152602001828054600181600116156101000203166002900480156107de5780601f106107b3576101008083540402835291602001916107de565b820191906000526020600020905b8154815290600101906020018083116107c157829003601f168201915b50505050509250945094509450945094509091929394565b600080610804338585610927565b503073ffffffffffffffffffffffffffffffffffffffff166108fc849081150290604051600060405180830381858888f1935050505090508091505092915050565b600080600760008473ffffffffffffffffffffffffffffffffffffffff1673ffffffffffffffffffffffffffffffffffffffff16815260200190815260200160002060000154600760008573ffffffffffffffffffffffffffffffffffffffff1673ffffffffffffffffffffffffffffffffffffffff1681526020019081526020016000206001015491509150915091565b600081838115156108e557fe5b04905092915050565b600080600060018401600a0a86029150600a6005868481151561090d57fe5b040181151561091857fe5b04905080925050509392505050565b6000670de0b6b3a764000082101561093e57600080fd5b6000600760008673ffffffffffffffffffffffffffffffffffffffff1673ffffffffffffffffffffffffffffffffffffffff1681526020019081526020016000206001015414156109f05760088490806001815401808255809150509060018203906000526020600020016000909192909190916101000a81548173ffffffffffffffffffffffffffffffffffffffff021916908373ffffffffffffffffffffffffffffffffffffffff160217905550505b82600760008673ffffffffffffffffffffffffffffffffffffffff1673ffffffffffffffffffffffffffffffffffffffff168152602001908152602001600020600001816000191690555081600760008673ffffffffffffffffffffffffffffffffffffffff1673ffffffffffffffffffffffffffffffffffffffff16815260200190815260200160002060010181905550600190509392505050565b828054600181600116156101000203166002900490600052602060002090601f016020900481019282601f10610ace57805160ff1916838001178555610afc565b82800160010185558215610afc579182015b82811115610afb578251825591602001919060010190610ae0565b5b509050610b099190610b0d565b5090565b610b2f91905b80821115610b2b576000816000905550600101610b13565b5090565b905600a165627a7a72305820701ce1c73505d78b0ccd52210c9fdc5b362a97ac928a36b7e43d47d107933dd90029",
  "source": "pragma solidity ^0.4.16;\n\nimport \"./Math.sol\";\nimport \"./Owner.sol\";\n\n// Every mobile has their own contract name !\ncontract Emobile {\n    bytes plate;  // mobile license-plate\n    uint256 initialFund = 5000000000000000000;  // Gogoro2 price : 60000 $NT\n    uint256 timestamp;\n    string driverName;\n    address driverAddress;\n    bool isLock;\n    \n    uint company_ratio = 5;\n    uint driver_ratio = 45;\n\n    struct Investors {\n        bytes32 name;  // (up to 32 bytes)\n        uint256 funds; // check how many amount the investor send \n    }\n    \n    mapping(address => Investors) public investorsStruct;\n    address[] investorsList; // list of question keys so we can enumerate them\n\n    function setDriver(string _driverName) \n        public \n    {\n        driverName = _driverName;\n    }\n    \n    function setInvestors(address _investor, bytes32 _investorName, uint256 _fund) \n        private \n        returns(bool) \n    {\n        if(_fund < 1000000000000000000) {\n            revert();\n        }\n        \n        // if no data in list, push into the investorsList...\n        if(investorsStruct[_investor].funds == 0) {\n            investorsList.push(_investor);\n        }\n        \n        investorsStruct[_investor].name = _investorName;\n        investorsStruct[_investor].funds = _fund;\n        \n        return true;\n    }\n    \n    function getInvestorCount() \n        public \n        constant \n        returns(uint) \n    {\n        return investorsList.length;\n    }\n    \n    function getInvestors(address index) \n        public \n        constant \n        returns(bytes32, uint256) \n    {\n        return (investorsStruct[index].name, investorsStruct[index].funds);\n    }\n\n    function getProfitValue() \n        public \n        constant \n        returns(uint) \n    {\n        // return the profit of contract of emobile.\n        return address(this).balance;\n    }\n    \n    function getMobileInformation() \n        public\n        constant\n        returns(bytes, uint256, string, bool, uint256) \n    {\n        return (plate, initialFund, driverName, isLock, timestamp);\n    }\n    \n    function payCoinForDriver(uint256 _price) \n        public \n        payable \n        returns(bool)\n    {\n        // check whether the passenger has enough ether or not.\n        if(msg.sender <= 0) {\n            revert(\"No money\");\n        }\n        // input the mobile and passenger's address\n        // and caculated the milage and get price\n        bool res = address(this).send(_price);\n        return res;\n    }\n    \n    function investForDriver(bytes32 _investorName, uint256 _fund) \n        public \n        payable \n        returns(bool) \n    {\n        // msg.sender, william, 10\n        // delegate the specific emobile contract address, and then saving the investors information.\n        // need record what fund the investor send.\n        setInvestors(msg.sender, _investorName, _fund);\n        // send to specific emobile address.\n        bool res = address(this).send(_fund);\n        return res;\n    }\n    // redistributed profit to all the investors.\n    function repay(uint precision) \n        public \n    {\n        uint totalAmount = getProfitValue();\n        if(totalAmount <= initialFund) {\n            revert();\n        }\n        uint totalProfit =  totalAmount - initialFund;\n        uint totalProfitUnit = Math.div(totalProfit, 10 ** precision);\n      \n        // repay all the money to every invenstor\n        for (uint i = 0; i <  investorsList.length; i++) {\n            // investors[0] for company investors[1] for passenger, investors[2] and other are investors...\n            // Calculate each investors funding ratio...\n            uint ratio = Math.percent(investorsStruct[investorsList[i]].funds, totalAmount, precision);\n            investorsList[i].transfer(totalProfitUnit * ratio);\n        }\n    }\n    // return all the funds back to the investors.\n    function refund() \n        private\n    {\n        uint totalAmount = getProfitValue();\n        uint totalAmountUnit = Math.div(totalAmount, 10 ** 3);\n\n        if(address(this).balance < initialFund) {\n            revert();\n        }\n         // repay all the money to every invenstor\n        for (uint i = 0; i <  investorsList.length; i++) {\n            // check the investor's ratio\n            uint ratio = Math.percent(investorsStruct[investorsList[i]].funds, totalAmount, 3);\n            investorsList[i].transfer(totalAmountUnit * ratio);\n        }\n    }\n    \n    function () \n        public \n        payable \n    {\n    }\n}",
  "sourcePath": "/Users/a10000005588/EMoto/Contract/contracts/Emobile.sol",
  "compiler": {
    "name": "solc",
    "version": "0.4.23+commit.124ca40d.Emscripten.clang"
  },
  "schemaVersion": "2.0.0",
  "updatedAt": "2018-05-01T11:52:03.194Z"
}